:100000000C9462000C948A000C948A000C948A0070
:100010000C948A000C948A000C948A000C948A0038
:100020000C948A000C948A000C948A000C948A0028
:100030000C948A000C948A000C948A000C948A0018
:100040000C94E8010C948A000C948A000C948A00A9
:100050000C948A000C948A000C948A000C948A00F8
:100060000C948A000C948A000000000024002700F1
:100070002A0000000000250028002B0000000000DE
:1000800023002600290004040404040404040202DA
:100090000202020203030303030301020408102007
:1000A0004080010204081020010204081020000012
:1000B0000008000201000003040700000000000027
:1000C0000000F90311241FBECFEFD8E0DEBFCDBF83
:1000D00011E0A0E0B1E0EAE9F8E002C005900D927D
:1000E000AE31B107D9F721E0AEE1B1E001C01D9218
:1000F000A639B207E1F710E0C2E6D0E004C02197CC
:10010000FE010E944504C136D107C9F70E943202A0
:100110000C944B040C94000096E0899FD0011124AC
:10012000A95DBE4F90967C936E935F9791E09196F8
:100130009C93919790919301E0919401F091950196
:10014000992339F0309751F0811108C08091430113
:1001500004C0309719F05C968C9109940895CF9261
:10016000DF92EF92FF920F931F9396E0899FF00129
:100170001124E95DFE4F11A2278D30A121303105F8
:1001800039F158F02230310509F447C023303105E8
:1001900009F04FC060E070E044C0662309F449C034
:1001A00061E070E00E948C002FB7F89480912301E9
:1001B00090912401A0912501B09126012FBF809339
:1001C0007F0190938001A0938101B093820131C09F
:1001D0009FB7F894C0902301D0902401E0902501AE
:1001E000F09026019FBF00917F0110918001209126
:1001F000810130918201C01AD10AE20AF30A00910A
:1002000091011091920120E030E00C151D052E05A2
:100210003F0518F462E070E004C061110AC063E0B9
:1002200070E01F910F91FF90EF90DF90CF900C94B2
:100230008C001F910F91FF90EF90DF90CF90089569
:10024000833081F028F4813099F08230A1F0089554
:100250008730A9F08830B9F08430D1F480918000E3
:100260008F7D03C0809180008F77809380000895F8
:1002700084B58F7702C084B58F7D84BD0895809149
:10028000B0008F7703C08091B0008F7D8093B00065
:100290000895CF93DF93282F30E0F901E255FF4F07
:1002A0008491F901E656FF4FD491F901EA57FF4FC7
:1002B000C491CC2391F081110E942001EC2FF0E039
:1002C000EE0FFF1FE458FF4FA591B491EC91ED2381
:1002D00081E090E021F480E002C080E090E0DF91D6
:1002E000CF9108951F93CF93DF93282F30E0F9012A
:1002F000E255FF4F8491F901E656FF4FD491F90181
:10030000EA57FF4FC491CC23C1F0162F81110E94F0
:100310002001EC2FF0E0EE0FFF1FEE58FF4FA591EC
:10032000B4919FB7F894111104C08C91D095D82343
:1003300002C0EC91DE2BDC939FBFDF91CF911F9128
:100340000895CF93DF9390E0FC01E656FF4F249190
:10035000FC01EA57FF4F8491882361F190E0880FF8
:10036000991FFC01E859FF4FC591D491FC01EE584B
:10037000FF4FA591B491611109C09FB7F89488818E
:10038000209582238883EC912E230BC0623061F488
:100390009FB7F8948881322F309583238883EC911E
:1003A0002E2B2C939FBF06C08FB7F894E8812E2B7D
:1003B00028838FBFDF91CF910895862F642F0C94EF
:1003C000A101862F642F0C947201862F0C94490191
:1003D0001F920F920FB60F9211242F933F938F937A
:1003E0009F93AF93BF938091230190912401A0919B
:1003F0002501B09126013091220123E0230F2D37F2
:1004000020F40196A11DB11D05C026E8230F029618
:10041000A11DB11D209322018093230190932401FB
:10042000A0932501B093260180911E0190911F0198
:10043000A0912001B09121010196A11DB11D8093D1
:100440001E0190931F01A0932001B0932101BF9141
:10045000AF919F918F913F912F910F900FBE0F9071
:100460001F901895789484B5826084BD84B58160AE
:1004700084BD85B5826085BD85B5816085BD80916F
:100480006E00816080936E001092810080918100E7
:1004900082608093810080918100816080938100DF
:1004A000809180008160809380008091B1008460A1
:1004B0008093B1008091B00081608093B000809102
:1004C0007A00846080937A0080917A0082608093C1
:1004D0007A0080917A00816080937A0080917A001E
:1004E000806880937A001092C10061E08DE00E94E4
:1004F000A10161E08CE00E94A10161E08BE00E941B
:10050000A101812C912C5401839422242A94322C11
:1005100060E0662E60E0762E21E0209393018FB795
:10052000F89440912301509124016091250170912C
:1005300026018FBF8091830190918401A091850154
:10054000B0918601481B590B6A0B7B0B80918F0180
:1005500090919001A0E0B0E084179507A607B70737
:1005600008F0F3C0C0E080918D01C81710F0512C45
:1005700040C0E0918901F0918A01EC0FF11D62E029
:1005800080810E94A101CF5FEECFC42DD0E0E09129
:100590008901F0918A01EC0FFD1F80810E944901C1
:1005A0002496CC0FDD1FC95DDE4F892B09F04BC0AF
:1005B000888199818C299D2999838883439480918E
:1005C0008D01481610F3E0918B01F0918C01E00F42
:1005D000F11F61E080810E94720180918B019091F6
:1005E0008C01FC01E00FF11F60E080810E94A101FD
:1005F000539480918E01581658F5052D10E0E09126
:100600008B01F0918C01E00FF11F61E080810E946D
:10061000A101E0918B01F0918C01E00FF11F60E0EE
:1006200080810E947201D501C401052C04C0880F8D
:10063000991FAA1FBB1F0A94D2F76C017C01E0949A
:10064000F094412CBCCF888199818E219F21B4CF19
:10065000C7E2D1E0FE01878D90A1892B21F4148E91
:10066000368E258E11A2369683E691E08E179F076F
:1006700091F710E080918D01181770F500E0E12EE0
:10068000F12CC701880F991FFC01E15DFE4F7F012E
:1006900020918E010217F0F4F70140815181002E64
:1006A00002C0569547950A94E2F7642F6170129F35
:1006B00090011124200F311DE7E2F1E080E0A58DCB
:1006C000B68D2A173B0709F48AC08F5F36968A30A9
:1006D000B1F767C01F5FCECF80E099A1911181E093
:1006E000269621E0C336D207C1F79FB7F894409110
:1006F00023015091240160912501709126019FBF33
:100700004093830150938401609385017093860127
:100710008823D9F0809148018823B9F0809146015F
:1007200090914701019789F480914301833371F1DE
:1007300034F4813369F0823399F461E00FC085337A
:1007400061F044F08633B1F00BC01092930122C0E7
:1007500061E001C060E08DE01BC060E08CE018C08B
:10076000833251F460E08DE00E94720160E08CE021
:100770000E94720160E00BC08A3261F461E08DE09A
:100780000E94720161E08CE00E94720161E08BE0E6
:100790000E9472016114710409F4BECE0E9400002F
:1007A000BBCE40FF1EC0E7E2F1E080E090E0448D68
:1007B000411119C0E0918701F0918801E20FF31F08
:1007C0007081F6E0F89FA001F99F500D1124FA0105
:1007D000E95DFE4F748F368F258F10A2178E0E9411
:1007E000AF000F5F55CF019636968A309105F9F626
:1007F000F8CF1092290110922D0110922C01109225
:100800002E0187E191E09093280180932701E7E290
:10081000F1E0148E10A2178E11A2369681E0E33615
:10082000F807B9F783E091E090938A0180938901FA
:1008300080E091E090938C0180938B0184E0809321
:100840008D0183E080938E0187E091E09093880191
:10085000809387018AE090E09093900180938F01CC
:1008600084EF91E090939201809391011092950111
:1008700010929401109283011092840110928501CC
:1008800010928601109293010895EE0FFF1F0590BC
:0A089000F491E02D0994F894FFCFD5
:10089A00040506030201003132333435363738395C
:0E08AA002A302300000000DD01E101E501001D
:00000001FF
