:100000000C9462000C948A000C948A000C948A0070
:100010000C948A000C948A000C948A000C948A0038
:100020000C948A000C948A000C948A000C948A0028
:100030000C948A000C948A000C948A000C948A0018
:100040000C942A020C948A000C949A020C94740268
:100050000C948A000C948A000C948A000C948A00F8
:100060000C948A000C948A000000000024002700F1
:100070002A000000000023002600290000000000E4
:10008000250028002B0004040404040404040202D4
:100090000202020203030303030301020408102007
:1000A0004080010204081020010204081020000012
:1000B0000008000201000003040700000000000027
:1000C0000000EF0311241FBECFEFD8E0DEBFCDBF8D
:1000D00011E0A0E0B1E0E6E9F8E002C005900D9281
:1000E000AC32B107D9F721E0ACE2B1E001C01D921A
:1000F000A43DB207E1F710E0C2E6D0E004C02197CA
:10010000FE010E943E04C136D107C9F70E94CC020D
:100110000C9449040C940000833081F028F4813061
:1001200099F08230A1F008958730A9F08830B9F0B5
:100130008430D1F4809180008F7D03C08091800055
:100140008F7780938000089584B58F7702C084B53F
:100150008F7D84BD08958091B0008F7703C080911A
:10016000B0008F7D8093B00008951F93CF93DF93ED
:10017000E0EBF0E09491ECE9F0E0D491E8E8F0E015
:10018000C491CC23D1F0182F992319F0892F0E9404
:100190008C00EC2FF0E0EE0FFF1FE458FF4FA5910D
:1001A000B4919FB7F894111104C08C91D095D823C5
:1001B00002C0EC91DE2BDC939FBFDF91CF911F91AA
:1001C00008953FB7F8948091330190913401A09144
:1001D0003501B091360126B5A89B05C02F3F19F017
:1001E0000196A11DB11D3FBFBA2FA92F982F8827B7
:1001F000820F911DA11DB11DBC01CD0142E0660F12
:10020000771F881F991F4A95D1F70895CF92DF92E3
:10021000EF92FF920F931F93CF93DF936C017A01BC
:100220008B01C0E0D0E0CE15DF0581F0D8016D91E3
:100230008D01D601ED91FC910190F081E02DC60178
:100240000995892B11F02196EECF7E01C701DF9130
:10025000CF911F910F91FF90EF90DF90CF90089575
:10026000089580E090E00895FC01538D448D252F82
:1002700030E0842F90E0821B930B541710F0CF9640
:10028000089501970895FC01918D828D981761F072
:10029000828DDF01A80FB11D5D968C91928D9F5FBD
:1002A0009F73928F90E008958FEF9FEF0895FC0168
:1002B000918D828D981731F0828DE80FF11D858D1B
:1002C00090E008958FEF9FEF0895FC01918D228DAE
:1002D000892F90E0805C9F4F821B91098F73992733
:1002E000089587E391E00E94650121E0892B09F4DC
:1002F00020E0822F0895FC01848DDF01A80FB11D3D
:10030000A35ABF4F2C91848D90E001968F7399274B
:10031000848FA689B7892C93A089B1898C91837029
:1003200080648C93938D848D981306C00288F38922
:10033000E02D80818F7D80830895EF92FF920F934F
:100340001F93CF93DF93EC0181E0888F9B8D8C8D81
:10035000981305C0E889F989808185FD26C0F62EAD
:100360000B8D10E00F5F1F4F0F731127E02E8C8D48
:10037000E8120CC00FB607FCFACFE889F989808132
:1003800085FFF5CFCE010E947B01F1CF8B8DFE0161
:10039000E80FF11DE35AFF4FF0829FB7F8940B8FDF
:1003A000EA89FB89808180620AC09FB7F894EE8950
:1003B000FF896083E889F989808183708064808304
:1003C0009FBF81E090E0DF91CF911F910F91FF904F
:1003D000EF900895CF93DF93EC01888D8823C9F0C7
:1003E000EA89FB89808185FD05C0A889B9898C913E
:1003F00086FD0FC00FB607FCF5CF808185FFF2CFD9
:10040000A889B9898C9185FFEDCFCE010E947B012F
:10041000E7CFDF91CF91089580E090E0892B29F01C
:100420000E94710181110C9400000895009769F0F9
:10043000FC0101900020E9F73197AF01481B590BEF
:10044000BC0187E391E00C94060180E090E0089500
:100450000E9444041F920F920FB60F9211242F9303
:100460003F938F939F93AF93BF9380912F01909170
:100470003001A0913101B091320130912E0123E081
:10048000230F2D3720F40196A11DB11D05C026E8CC
:10049000230F0296A11DB11D20932E0180932F01E1
:1004A00090933001A0933101B093320180913301D8
:1004B00090913401A0913501B09136010196A11DB2
:1004C000B11D8093330190933401A0933501B09313
:1004D0003601BF91AF919F918F913F912F910F90D6
:1004E0000FBE0F901F9018951F920F920FB60F928C
:1004F00011242F933F934F935F936F937F938F9329
:100500009F93AF93BF93EF93FF9387E391E00E9494
:100510007B01FF91EF91BF91AF919F918F917F915F
:100520006F915F914F913F912F910F900FBE0F9060
:100530001F9018951F920F920FB60F9211242F93B0
:100540008F939F93EF93FF93E0914701F0914801C0
:100550008081E0914D01F0914E0182FD12C09081A9
:10056000809150018F5F8F7320915101821751F05C
:10057000E0915001F0E0E95CFE4F958F80935001CF
:1005800001C08081FF91EF919F918F912F910F90EA
:100590000FBE0F901F901895CF93DF93CDB7DEB7A6
:1005A000A1970FB6F894DEBF0FBECDBF789484B587
:1005B000826084BD84B5816084BD85B5826085BD5F
:1005C00085B5816085BD80916E00816080936E00ED
:1005D00010928100809181008260809381008091DF
:1005E0008100816080938100809180008160809390
:1005F00080008091B10084608093B1008091B00050
:1006000081608093B00080917A00846080937A004A
:1006100080917A00826080937A0080917A00816074
:1006200080937A0080917A00806880937A0010929B
:10063000C100E0914701F091480182E08083E091A0
:100640004301F09144011082E0914501F09146018F
:100650008FEC808310924F01E0914B01F0914C019F
:1006600086E08083E0914901F0914A0180818061B8
:100670008083E0914901F0914A0180818860808304
:10068000E0914901F0914A01808180688083E09186
:100690004901F0914A0180818F7D8083ECE9F0E08F
:1006A0002491E8E8F0E08491882399F090E0880FA5
:1006B000991FFC01E859FF4FA591B491FC01E45842
:1006C000FF4F859194918FB7F894EC91E22BEC93C6
:1006D0008FBF27EA222E20E0322E03E910E03AE015
:1006E000432E512C612C712CEBEBF0E08491F10145
:1006F000F490F801E490EE20A1F081110E948C00AA
:10070000EE2DF0E0EE0FFF1FEE58FF4FA591B491D4
:100710008C91F82291E080E009F490E0292F382FA5
:1007200002C020E030E030932D0120932C01032EF5
:10073000000C440B550B19A27E01F1E2EF0EF11CE7
:10074000CA01B901A30192010E941C04605DF70176
:1007500062937F01211531054105510589F7CF01CC
:100760000E94160280912C0190912D01019731F485
:1007700081E00E94B50082E191E005C080E00E9426
:10078000B5008FE191E00E9416020E94E1006B012A
:100790007C0188EE882E83E0982EA12CB12C0E943B
:1007A000E100DC01CB018C199D09AE09BF09883E2F
:1007B0009340A105B10598F3F1E08F1A9108A108C3
:1007C000B10828EEC20E23E0D21EE11CF11C8114F8
:1007D0009104A104B10419F70E940C0285CFE7E34C
:1007E000F1E01382128288EE93E0A0E0B0E084830F
:1007F0009583A683B78384E091E09183808385EC21
:1008000090E09587848784EC90E09787868780ECDA
:1008100090E0918B808B81EC90E0938B828B82ECCB
:1008200090E0958B848B86EC90E0978B868B118E75
:10083000128E138E148E0895A1E21A2EAA1BBB1BD2
:10084000FD010DC0AA1FBB1FEE1FFF1FA217B3079C
:10085000E407F50720F0A21BB30BE40BF50B661FB2
:10086000771F881F991F1A9469F760957095809576
:1008700090959B01AC01BD01CF010895EE0FFF1FC4
:100880000590F491E02D099481E090E0F8940C94A7
:060890004904F894FFCFBB
:10089600000000009D0106013401EA0165014301E3
:1008A600570120484947482056414C5545200020CD
:0C08B6004C4F572056414C554520000087
:00000001FF
