:100000000C945D000C9485000C9485000C94850084
:100010000C9485000C9485000C9485000C9485004C
:100020000C9485000C9485000C9485000C9485003C
:100030000C9485000C9485000C9485000C9485002C
:100040000C949E020C9485000C9485000C94850001
:100050000C9485000C9485000C9485000C9485000C
:100060000C9485000C94850000000008000201003B
:100070000003040700000000000000000000000072
:10008000250028002B0000000000240027002A0083
:10009000040404040404040402020202020203032E
:1000A0000303030301020408102040800102040836
:1000B0001020010204081020FD0311241FBECFEF01
:1000C000D8E0DEBFCDBF11E0A0E0B1E0EAEDFBE09B
:1000D00002C005900D92A431B107D9F721E0A4E147
:1000E000B1E001C01D92A733B207E1F710E0CDE502
:1000F000D0E004C02197FE010E94E005CC35D10775
:10010000C9F70E94E8020C94EB050C94000090E003
:10011000FC01EC55FF4F2491FC01E057FF4F849107
:10012000882399F090E0880F991FFC01EA57FF4F50
:10013000A591B491FC01E458FF4F859194918FB73C
:10014000F894EC91E22BEC938FBF089590E0FC01C2
:10015000E859FF4F2491FC01EC55FF4F3491FC010D
:10016000E057FF4FE491EE2309F43CC0222339F11C
:10017000233091F038F42130A9F0223001F584B514
:100180008F7D12C0273091F02830A1F02430B9F4CF
:10019000809180008F7D03C0809180008F77809355
:1001A00080000DC084B58F7784BD09C08091B000F8
:1001B0008F7703C08091B0008F7D8093B000F0E016
:1001C000EE0FFF1FE458FF4FA591B4919FB7F8942D
:1001D000611104C08C913095382302C0EC913E2B04
:1001E0003C939FBF08953FB7F89480911B01909175
:1001F0001C01A0911D01B0911E0126B5A89B05C050
:100200002F3F19F00196A11DB11D3FBFBA2FA92F95
:10021000982F8827820F911DA11DB11DBC01CD0112
:1002200042E0660F771F881F991F4A95D1F70895FE
:10023000CF92DF92EF92FF920F931F93CF93DF93B2
:100240006C017A018B01C0E0D0E0CE15DF0581F0B2
:10025000D8016D918D01D601ED91FC910190F08155
:10026000E02DC6010995892B11F02196EECF7E0174
:10027000C701DF91CF911F910F91FF90EF90DF9019
:10028000CF900895CF93DF93EC0160E08E810E94C0
:10029000A60061E08E810E94A60060E08E810E942F
:1002A000A6008BE891E00197F1F7DF91CF910895D7
:1002B000CF92DF92EF92FF920F931F93CF93DF9332
:1002C0006C017C0187E0E80EF11CC0E0D0E0062F55
:1002D00010E0B8010C2E02C0759567950A94E2F7FC
:1002E0006170F70181917F010E94A6002196C430C0
:1002F000D10579F7C601DF91CF911F910F91FF9042
:10030000EF90DF90CF900C944201CF92DF92EF926A
:10031000FF920F931F93CF93DF93EC01F62E642F80
:100320008C810E94A6008D818F3F19F060E00E94B1
:10033000A6008F850F2D10E084FF25C06E0187E099
:10034000C80ED11CE12CF12CB8010E2C02C0759501
:1003500067950A94E2F76170F60181916F010E943E
:10036000A600FFEFEF1AFF0A88E0E816F10461F734
:10037000CE01DF91CF911F910F91FF90EF90DF9011
:10038000CF900C944201B80184E0759567958A95E9
:10039000E1F7CE010E9458016F2DCE01DF91CF9180
:1003A0001F910F91FF90EF90DF90CF900C94580128
:1003B00040E0682F8FE191E00C948501CF93DF93AB
:1003C000823028F090912E01986090932E018093B6
:1003D00032011092330180E48093340180E18093F4
:1003E000350180E580933601809123010E948700CA
:1003F000809124018F3F11F00E9487008091250198
:100400000E948700CFE1D1E09E012F5131408091C1
:100410002E0184FD03C084E090E002C088E090E0FB
:1004200021962817390724F48E810E948700ECCF8B
:100430008BE39DE00197F1F760E0809123010E943A
:10044000A60060E0809125010E94A6008091240111
:100450008F3F19F060E00E94A60080912E0184FD7C
:1004600020C063E08FE191E00E945801CBE4D6E424
:10047000CE010197F1F763E08FE191E00E9458010E
:100480002197F1F763E08FE191E00E94580183E545
:1004900092E00197F1F762E08FE191E00E9458014C
:1004A00015C080620E94D8018BE496E40197F1F7B1
:1004B00080912E0180620E94D80183E592E001972D
:1004C000F1F780912E0180620E94D80180912E0167
:1004D00080620E94D80184E080932F018CE00E940A
:1004E000D80181E00E94D8018BE39FE10197F1F7E9
:1004F00082E08093300186E0DF91CF910C94D801A7
:1005000041E00E94850181E090E00895089580E037
:1005100090E00895009769F0FC0101900020E9F750
:100520003197AF01481B590BBC018FE191E00C944E
:10053000180180E090E008950E94E6051F920F9256
:100540000FB60F9211242F933F938F939F93AF93E6
:10055000BF938091170190911801A0911901B0915A
:100560001A013091160123E0230F2D3720F4019654
:10057000A11DB11D05C026E8230F0296A11DB11DC6
:10058000209316018093170190931801A0931901ED
:10059000B0931A0180911B0190911C01A0911D0143
:1005A000B0911E010196A11DB11D80931B01909376
:1005B0001C01A0931D01B0931E01BF91AF919F91AB
:1005C0008F913F912F910F900FBE0F901F90189514
:1005D000CF93DF93CDB7DEB7A1970FB6F894DEBF08
:1005E0000FBECDBF789484B5826084BD84B5816030
:1005F00084BD85B5826085BD85B5816085BD8091EE
:100600006E00816080936E00109281008091810065
:10061000826080938100809181008160809381005D
:10062000809180008160809380008091B10084601F
:100630008093B1008091B00081608093B000809180
:100640007A00846080937A0080917A00826080933F
:100650007A0080917A00816080937A0080917A009C
:10066000806880937A001092C10082E00E94DE01CF
:100670008CE091E00E948A028DE00E94870000E0F9
:1006800010E090E4392E30927C0080917A008064F2
:1006900080937A0080917A0086FDFCCF609178008B
:1006A0008091790070E0782B072E000C880B990B55
:1006B0000E94C5042AE038E240EA5BE30E9451054B
:1006C0002AE037ED43E25CE30E941B040E948D04A4
:1006D0006B017C0170931501609314010E94F3007B
:1006E0004B015C0184EF482E55245394612C712CEE
:1006F0000E94F300DC01CB0188199909AA09BB0902
:10070000883E9340A105B10598F321E0421A5108B3
:100710006108710888EE880E83E0981EA11CB11C48
:10072000411451046104710419F7E1E08091320130
:100730008111E0E0E195F0E0E15EFE4F84898A5F9F
:1007400080680E94D8010D2C000CEE08FF08F7FE0F
:1007500023C041E06DE28FE191E00E9485012227F4
:100760003327A9012C193D094E095F0919A2CE01B1
:1007700081967C01CA01B9012AE030E040E050E0F6
:100780000E94BE05605DF70162937F01211531056E
:100790004105510579F717C0A701960119A2CE01AD
:1007A00081967C01CA01B9012AE030E040E050E0C6
:1007B0000E94BE05605DF70162937F01211531053E
:1007C0004105510579F7C7010E948A0282E191E053
:1007D0000E948A0280911401909115014A9714F0A9
:1007E00061E001C060E08DE00E94A60001151105E6
:1007F00009F449CF0E94000046CFEFE1F1E01382F7
:10080000128284E091E0918380838CE084838FEF77
:1008100085838BE0868385E0878384E0808783E01F
:10082000818782E08287138614861586168617864E
:1008300081E00C94DE010E942F040C9417050E94A5
:10084000100558F00E94090540F029F45F3F29F097
:100850000C94000551110C944B050C9406050E9454
:10086000280568F39923B1F3552391F3951B550B94
:10087000BB27AA2762177307840738F09F5F5F4F73
:10088000220F331F441FAA1FA9F335D00E2E3AF0B2
:10089000E0E832D091505040E695001CCAF72BD0CA
:1008A000FE2F29D0660F771F881FBB1F261737071B
:1008B0004807AB07B0E809F0BB0B802DBF01FF274D
:1008C00093585F4F3AF09E3F510578F00C94000525
:1008D0000C944B055F3FE4F3983ED4F386957795EF
:1008E0006795B795F7959F5FC9F7880F911D969506
:1008F000879597F90895E1E0660F771F881FBB1F62
:10090000621773078407BA0720F0621B730B840B0E
:10091000BA0BEE1F88F7E09508950E94940468943E
:10092000B1110C944B0508950E94300588F09F5733
:1009300098F0B92F9927B751B0F0E1F0660F771F03
:10094000881F991F1AF0BA95C9F714C0B13091F0F9
:100950000E944A05B1E008950C944A05672F782F4C
:100960008827B85F39F0B93FCCF3869577956795BE
:10097000B395D9F73EF490958095709561957F4F2A
:100980008F4F9F4F0895E89409C097FB3EF49095D0
:100990008095709561957F4F8F4F9F4F9923A9F058
:1009A000F92F96E9BB279395F695879577956795E7
:1009B000B795F111F8CFFAF4BB0F11F460FF1BC02B
:1009C0006F5F7F4F8F4F9F4F16C0882311F096E9BE
:1009D00011C0772321F09EE8872F762F05C066236C
:1009E00071F096E8862F70E060E02AF09A95660F25
:1009F000771F881FDAF7880F9695879597F90895DE
:100A000097F99F6780E870E060E008959FEF80ECC1
:100A1000089500240A941616170618060906089564
:100A200000240A9412161306140605060895092ECA
:100A30000394000C11F4882352F0BB0F40F4BF2B39
:100A400011F460FF04C06F5F7F4F8F4F9F4F089579
:100A500057FD9058440F551F59F05F3F71F047956F
:100A6000880F97FB991F61F09F3F79F08795089554
:100A7000121613061406551FF2CF4695F1DF08C073
:100A8000161617061806991FF1CF86957105610590
:100A900008940895E894BB2766277727CB0197F938
:100AA00008950E9464050C9417050E94090538F00A
:100AB0000E94100520F0952311F00C9400050C9471
:100AC000060511240C944B050E94280570F3959F90
:100AD000C1F3950F50E0551F629FF001729FBB2735
:100AE000F00DB11D639FAA27F00DB11DAA1F649FD1
:100AF0006627B00DA11D661F829F2227B00DA11D84
:100B0000621F739FB00DA11D621F839FA00D611D09
:100B1000221F749F3327A00D611D231F849F600D2A
:100B2000211D822F762F6A2F11249F5750409AF053
:100B3000F1F088234AF0EE0FFF1FBB1F661F771FDF
:100B4000881F91505040A9F79E3F510580F00C94AA
:100B500000050C944B055F3FE4F3983ED4F3869573
:100B600077956795B795F795E7959F5FC1F7FE2B4A
:100B7000880F911D9695879597F90895A1E21A2EF1
:100B8000AA1BBB1BFD010DC0AA1FBB1FEE1FFF1F31
:100B9000A217B307E407F50720F0A21BB30BE40B81
:100BA000F50B661F771F881F991F1A9469F76095C8
:100BB0007095809590959B01AC01BD01CF01089582
:100BC000EE0FFF1F0590F491E02D099481E090E075
:0A0BD000F8940C94EB05F894FFCFA5
:100BDA0000000000800218018702860274656D70A9
:040BEA003D00430087
:00000001FF
