:100000000C9462000C948A000C948A000C948A0070
:100010000C948A000C948A000C948A000C948A0038
:100020000C948A000C948A000C948A000C948A0028
:100030000C948A000C948A000C948A000C948A0018
:100040000C9404040C948A000C948A000C948A008A
:100050000C948A000C948A000C948A000C948A00F8
:100060000C948A000C948A000000000024002700F1
:100070002A0000000000250028002B0000000000DE
:1000800023002600290004040404040404040202DA
:100090000202020203030303030301020408102007
:1000A0004080010204081020010204081020000012
:1000B0000008000201000003040700000000000027
:1000C0000000400611241FBECFEFD8E0DEBFCDBF39
:1000D00011E0A0E0B1E0E8E8FDE002C005900D927B
:1000E000A437B107D9F722E0A4E7B1E001C01D921F
:1000F000AC30B207E1F710E0C2E6D0E004C02197CF
:10010000FE010E94B706C136D107C9F70E944E040E
:100110000C94C2060C94000096E0899FD001112433
:10012000AB57BE4F90967C936E935F9791E09196FC
:100130009C9391979091F101E091F201F091F3017C
:10014000992339F0309751F0811108C08091A101B5
:1001500004C0309719F05C968C9109940895CF9261
:10016000DF92EF92FF920F931F9396E0899FF00129
:100170001124EB57FE4F11A2278D30A121303105FC
:1001800039F158F02230310509F447C023303105E8
:1001900009F04FC060E070E044C0662309F449C034
:1001A00061E070E00E948C002FB7F894809181018B
:1001B00090918201A0918301B09184012FBF80931F
:1001C000DD019093DE01A093DF01B093E00131C027
:1001D0009FB7F894C0908101D0908201E090830194
:1001E000F09084019FBF0091DD011091DE0120910C
:1001F000DF013091E001C01AD10AE20AF30A00914E
:10020000EF011091F00120E030E00C151D052E05E6
:100210003F0518F462E070E004C061110AC063E0B9
:1002200070E01F910F91FF90EF90DF90CF900C94B2
:100230008C001F910F91FF90EF90DF90CF90089569
:10024000833081F028F4813099F08230A1F0089554
:100250008730A9F08830B9F08430D1F480918000E3
:100260008F7D03C0809180008F77809380000895F8
:1002700084B58F7702C084B58F7D84BD0895809149
:10028000B0008F7703C08091B0008F7D8093B00065
:100290000895CF93DF93282F30E0F901E255FF4F07
:1002A0008491F901E656FF4FD491F901EA57FF4FC7
:1002B000C491CC2391F081110E942001EC2FF0E039
:1002C000EE0FFF1FE458FF4FA591B491EC91ED2381
:1002D00081E090E021F480E002C080E090E0DF91D6
:1002E000CF9108951F93CF93DF93282F30E0F9012A
:1002F000E255FF4F8491F901E656FF4FD491F90181
:10030000EA57FF4FC491CC23C1F0162F81110E94F0
:100310002001EC2FF0E0EE0FFF1FEE58FF4FA591EC
:10032000B4919FB7F894111104C08C91D095D82343
:1003300002C0EC91DE2BDC939FBFDF91CF911F9128
:100340000895CF93DF9390E0FC01E656FF4F249190
:10035000FC01EA57FF4F8491882361F190E0880FF8
:10036000991FFC01E859FF4FC591D491FC01EE584B
:10037000FF4FA591B491611109C09FB7F89488818E
:10038000209582238883EC912E230BC0623061F488
:100390009FB7F8948881322F309583238883EC911E
:1003A0002E2B2C939FBF06C08FB7F894E8812E2B7D
:1003B00028838FBFDF91CF9108953FB7F894809144
:1003C0007D0190917E01A0917F01B091800126B5C1
:1003D000A89B05C02F3F19F00196A11DB11D3FBF7D
:1003E000BA2FA92F982F8827820F911DA11DB11D0B
:1003F000BC01CD0142E0660F771F881F991F4A9507
:10040000D1F708958F929F92AF92BF92CF92DF92D1
:10041000EF92FF920E94DD014B015C0180EDC82E3E
:1004200087E0D82EE12CF12C0E94DD01DC01CB010C
:1004300088199909AA09BB09883E9340A105B1050D
:1004400098F321E0C21AD108E108F10888EE880E7D
:1004500083E0981EA11CB11CC114D104E104F10475
:1004600019F7FF90EF90DF90CF90BF90AF909F90E3
:100470008F900895862F642F0C94A101862F642FEE
:100480000C947201862F0C944901CF92DF92EF9267
:10049000FF920F931F93CF93DF936C017A018B012F
:1004A000C0E0D0E0CE15DF0581F0D8016D918D015F
:1004B000D601ED91FC910190F081E02DC6010995E6
:1004C000892B11F02196EECF7E01C701DF91CF91EC
:1004D0001F910F91FF90EF90DF90CF900895CF93F1
:1004E000DF93EC0160E08E810E94720161E08E81F9
:1004F0000E94720160E08E810E9472018BE891E09F
:100500000197F1F7DF91CF910895CF92DF92EF92AB
:10051000FF920F931F93CF93DF936C017C0187E0D1
:10052000E80EF11CC0E0D0E0062F10E0B8010C2E60
:1005300002C0759567950A94E2F76170F7018191A1
:100540007F010E9472012196C430D10579F7C6015E
:10055000DF91CF911F910F91FF90EF90DF90CF909F
:100560000C946F02CF92DF92EF92FF920F931F9342
:10057000CF93DF93EC01F62E642F8C810E947201E1
:100580008D818F3F19F060E00E9472018F850F2DE1
:1005900010E084FF25C06E0187E0C80ED11CE12C5D
:1005A000F12CB8010E2C02C0759567950A94E2F7FC
:1005B0006170F60181916F010E947201FFEFEF1AE5
:1005C000FF0A88E0E816F10461F7CE01DF91CF91D0
:1005D0001F910F91FF90EF90DF90CF900C946F02DE
:1005E000B80184E0759567958A95E1F7CE010E9480
:1005F00085026F2DCE01DF91CF911F910F91FF905A
:10060000EF90DF90CF900C94850240E0682F84EF4C
:1006100091E00C94B20281E00E9405038BE39FE11C
:100620000197F1F70895CF93DF93823028F09091EE
:1006300003029860909303028093070210920802CD
:1006400080E48093090280E180930A0280E5809330
:100650000B0261E08091F8010E94A1018091F901F3
:100660008F3F19F061E00E94A10161E08091FA01E1
:100670000E94A101C4EFD1E09E01245F314080912E
:10068000030284FD03C084E090E002C088E090E0B3
:100690002196281739072CF461E08E810E94A10170
:1006A000EBCF8BE39DE00197F1F760E08091F801DB
:1006B0000E94720160E08091FA010E9472018091B3
:1006C000F9018F3F19F060E00E94720180910302EE
:1006D00084FD20C063E084EF91E00E948502CBE4BA
:1006E000D6E4CE010197F1F763E084EF91E00E9438
:1006F00085022197F1F763E084EF91E00E94850283
:1007000083E592E00197F1F762E084EF91E00E94C7
:10071000850215C080620E9405038BE496E4019770
:10072000F1F78091030280620E94050383E592E065
:100730000197F1F78091030280620E940503809186
:10074000030280620E94050384E0809304028CE02F
:100750000E9405030E940B0382E08093050286E05D
:10076000DF91CF910C940503843008F083E09091E1
:100770000702891710F08FEF890FE82FF0E0EC5097
:10078000FE4F848980680C94050341E00E94B20208
:1007900081E090E00895089580E090E0089500974A
:1007A00069F0FC0101900020E9F73197AF01481B87
:1007B000590BBC0184EF91E00C94450280E090E07D
:1007C00008950E940B0360E087E00E94720180E0C0
:1007D0000E94B4038EE291E00E94CF030E940202C5
:1007E00010927B0110927A0110927501109274019F
:1007F00080E00E94B4038DE391E00E94CF0381E08A
:100800000C94B4030E94BD061F920F920FB60F9274
:1008100011242F933F938F939F93AF93BF93809116
:10082000810190918201A0918301B0918401309166
:100830007C0123E0230F2D3720F40196A11DB11D6B
:1008400005C026E8230F0296A11DB11D20937C014F
:100850008093810190938201A0938301B0938401DE
:1008600080917D0190917E01A0917F01B0918001E6
:100870000196A11DB11D80937D0190937E01A093EF
:100880007F01B0938001BF91AF919F918F913F9174
:100890002F910F900FBE0F901F901895789484B5EC
:1008A000826084BD84B5816084BD85B5826085BD6C
:1008B00085B5816085BD80916E00816080936E00FA
:1008C00010928100809181008260809381008091EC
:1008D000810081608093810080918000816080939D
:1008E00080008091B10084608093B1008091B0005D
:1008F00081608093B00080917A00846080937A0058
:1009000080917A00826080937A0080917A00816081
:1009100080937A0080917A00806880937A001092A8
:10092000C10082E00E9413038FE491E00E94CF0394
:1009300081E00E94B40361E087E00E94A101412CA4
:10094000512C3201439451ECC52E51E0D52E60E07C
:10095000262E60E0362E21E02093F1018FB7F89427
:1009600040918101509182016091830170918401D5
:100970008FBF8091E1019091E201A091E301B091DC
:10098000E401481B590B6A0B7B0B8091ED019091A0
:10099000EE01A0E0B0E084179507A607B70708F0BE
:1009A000F9C0C0E08091EB01C81710F0912C40C055
:1009B000E091E701F091E801EC0FF11D62E0808128
:1009C0000E94A101CF5FEECFC82DD0E0E091E701FA
:1009D000F091E801EC0FFD1F80810E9449012496EF
:1009E000CC0FDD1FCB57DE4F892B09F04BC0888120
:1009F00099818A299B299983888383948091EB012B
:100A0000881610F3E091E901F091EA01E00FF11F7F
:100A100061E080810E9472018091E9019091EA0178
:100A2000FC01E00FF11F60E080810E94A10193941E
:100A30008091EC01981658F5092D10E0E091E9013C
:100A4000F091EA01E00FF11F61E080810E94A101B5
:100A5000E091E901F091EA01E00FF11F60E080818F
:100A60000E947201D301C201092C04C0880F991F92
:100A7000AA1FBB1F0A94D2F75C017C01E094F0949A
:100A8000812CBCCF888199818E219F21B4CFC5E86C
:100A9000D1E0FE01878D90A1892B31F4148E8FEF68
:100AA0009FEF968F858F11A23696CE16DF0691F7AF
:100AB00010E08091EB01181770F500E0E12EF12CA9
:100AC000C701880F991FFC01E357FE4F7F0120915A
:100AD000EC010217F0F4F70140815181002E02C0B1
:100AE000569547950A94E2F7642F6170129F900122
:100AF0001124200F311DE5E8F1E080E0A58DB68DD1
:100B00002A173B0709F4B2C08F5F36968A30B1F7D7
:100B10008FC01F5FCECF80E099A1911181E0269612
:100B2000CC16DD06C9F79FB7F8944091810150912A
:100B3000820160918301709184019FBF4093E10124
:100B40005093E2016093E3017093E401882311F173
:100B50008091A6018823F1F08091A4019091A501D4
:100B60000197C1F4C091A101C133BCF041E06AE238
:100B700084EF91E00E94B20280917A0190917B0112
:100B8000FC01EA58FE4FC083019690937B0180934D
:100B90007A0147C01092F10144C0C33209F041C04C
:100BA00080917A0190917B010497C9F5809174013D
:100BB00090917501E6E7F1E0A9E2B1E031912D9164
:100BC000321301C0019621E0EA37F207B9F790939A
:100BD000750180937401049711F50E940B0361E085
:100BE00087E00E94720180E00E94B40382E691E0F7
:100BF0000E94CF030E94020210927B0110927A01A0
:100C0000109275011092740180E00E94B4038DE38C
:100C100091E00E94CF0381E00E94B40302C00E94D1
:100C2000E1032114310409F496CE0E94000093CE12
:100C300040FF1EC0E5E8F1E080E090E0448D411106
:100C400019C0E091E501F091E601E20FF31F708118
:100C5000F6E0F89FA001F99F500D1124FA01EB571F
:100C6000FE4F748F368F258F10A2178E0E94AF0013
:100C70000F5F2DCF019636968A309105F9F6F8CFA1
:100C80001092870110928B0110928A0110928C01B0
:100C900083E291E09093860180938501E5E8F1E09D
:100CA000148E10A2178E11A2369681E0E13CF8074F
:100CB000B9F783E091E09093E8018093E70180E049
:100CC00091E09093EA018093E90184E08093EB0145
:100CD00083E08093EC0187E091E09093E6018093BC
:100CE000E5018AE090E09093EE018093ED0184EFBE
:100CF00091E09093F0018093EF011092F301109234
:100D0000F2011092E1011092E2011092E3011092BF
:100D1000E4011092F1011092F7011092F60187E1BF
:100D200091E09093F5018093F4018DE08093F801B8
:100D30008FEF8093F9018CE08093FA018BE0809330
:100D4000FB018AE08093FC0189E08093FD0188E04B
:100D50008093FE011092FF01109200021092010296
:100D6000109202021092030281E00C941303EE0F22
:100D7000FF1F0590F491E02D099481E090E0F89434
:080D80000C94C206F894FFCFA9
:100D88000405060302010031323334353637383969
:100D98002A302300000000C5034502CC03CB030022
:100DA8000000003A023E0242023132333400576FEB
:100DB800726E6720706173732020202000456E7466
:100DC8006572207468652070617373202020004567
:100DD8006E746572207468652070617373776F72C2
:100DE8006400636F7272656374207061737320208E
:040DF80020200000B7
:00000001FF
